{
  "contractName": "Betting",
  "abi": [
    {
      "inputs": [],
      "stateMutability": "nonpayable",
      "type": "constructor"
    },
    {
      "anonymous": false,
      "inputs": [
        {
          "indexed": false,
          "internalType": "uint256",
          "name": "slot",
          "type": "uint256"
        }
      ],
      "name": "BettingEnded",
      "type": "event"
    },
    {
      "anonymous": false,
      "inputs": [],
      "name": "BettingStart",
      "type": "event"
    },
    {
      "anonymous": false,
      "inputs": [
        {
          "indexed": false,
          "internalType": "uint256",
          "name": "slot",
          "type": "uint256"
        },
        {
          "indexed": false,
          "internalType": "uint256",
          "name": "amount",
          "type": "uint256"
        }
      ],
      "name": "NewBet",
      "type": "event"
    },
    {
      "inputs": [],
      "name": "activeSlotsCount",
      "outputs": [
        {
          "internalType": "uint256",
          "name": "",
          "type": "uint256"
        }
      ],
      "stateMutability": "view",
      "type": "function",
      "constant": true
    },
    {
      "inputs": [
        {
          "internalType": "uint256",
          "name": "",
          "type": "uint256"
        }
      ],
      "name": "betRecord",
      "outputs": [
        {
          "internalType": "uint256",
          "name": "totalBet",
          "type": "uint256"
        },
        {
          "internalType": "uint256",
          "name": "timeStamp",
          "type": "uint256"
        }
      ],
      "stateMutability": "view",
      "type": "function",
      "constant": true
    },
    {
      "inputs": [
        {
          "internalType": "uint256",
          "name": "",
          "type": "uint256"
        },
        {
          "internalType": "uint256",
          "name": "",
          "type": "uint256"
        }
      ],
      "name": "bets",
      "outputs": [
        {
          "internalType": "address",
          "name": "bettor",
          "type": "address"
        },
        {
          "internalType": "uint256",
          "name": "amount",
          "type": "uint256"
        }
      ],
      "stateMutability": "view",
      "type": "function",
      "constant": true
    },
    {
      "inputs": [],
      "name": "bettingActive",
      "outputs": [
        {
          "internalType": "bool",
          "name": "",
          "type": "bool"
        }
      ],
      "stateMutability": "view",
      "type": "function",
      "constant": true
    },
    {
      "inputs": [
        {
          "internalType": "address",
          "name": "",
          "type": "address"
        }
      ],
      "name": "hasBetThisRound",
      "outputs": [
        {
          "internalType": "bool",
          "name": "",
          "type": "bool"
        }
      ],
      "stateMutability": "view",
      "type": "function",
      "constant": true
    },
    {
      "inputs": [],
      "name": "owner",
      "outputs": [
        {
          "internalType": "address",
          "name": "",
          "type": "address"
        }
      ],
      "stateMutability": "view",
      "type": "function",
      "constant": true
    },
    {
      "inputs": [],
      "name": "ownerCommissionPercent",
      "outputs": [
        {
          "internalType": "uint256",
          "name": "",
          "type": "uint256"
        }
      ],
      "stateMutability": "view",
      "type": "function",
      "constant": true
    },
    {
      "inputs": [
        {
          "internalType": "uint256",
          "name": "",
          "type": "uint256"
        }
      ],
      "name": "slotHasBets",
      "outputs": [
        {
          "internalType": "bool",
          "name": "",
          "type": "bool"
        }
      ],
      "stateMutability": "view",
      "type": "function",
      "constant": true
    },
    {
      "inputs": [],
      "name": "totalBetAmount",
      "outputs": [
        {
          "internalType": "uint256",
          "name": "",
          "type": "uint256"
        }
      ],
      "stateMutability": "view",
      "type": "function",
      "constant": true
    },
    {
      "inputs": [
        {
          "internalType": "address",
          "name": "",
          "type": "address"
        }
      ],
      "name": "winningPool",
      "outputs": [
        {
          "internalType": "uint256",
          "name": "",
          "type": "uint256"
        }
      ],
      "stateMutability": "view",
      "type": "function",
      "constant": true
    },
    {
      "inputs": [],
      "name": "winningSlot",
      "outputs": [
        {
          "internalType": "uint256",
          "name": "",
          "type": "uint256"
        }
      ],
      "stateMutability": "view",
      "type": "function",
      "constant": true
    },
    {
      "inputs": [],
      "name": "startBetting",
      "outputs": [],
      "stateMutability": "nonpayable",
      "type": "function"
    },
    {
      "inputs": [
        {
          "internalType": "uint256",
          "name": "slot",
          "type": "uint256"
        }
      ],
      "name": "bet",
      "outputs": [],
      "stateMutability": "payable",
      "type": "function",
      "payable": true
    },
    {
      "inputs": [],
      "name": "getAllBets",
      "outputs": [
        {
          "components": [
            {
              "internalType": "address",
              "name": "bettor",
              "type": "address"
            },
            {
              "internalType": "uint256",
              "name": "amount",
              "type": "uint256"
            }
          ],
          "internalType": "struct Betting.Bet[][]",
          "name": "betStatus",
          "type": "tuple[][]"
        }
      ],
      "stateMutability": "view",
      "type": "function",
      "constant": true
    },
    {
      "inputs": [],
      "name": "getBetRecords",
      "outputs": [
        {
          "components": [
            {
              "internalType": "uint256",
              "name": "totalBet",
              "type": "uint256"
            },
            {
              "internalType": "address[]",
              "name": "winners",
              "type": "address[]"
            },
            {
              "internalType": "uint256",
              "name": "timeStamp",
              "type": "uint256"
            }
          ],
          "internalType": "struct Betting.BetInfo[]",
          "name": "records",
          "type": "tuple[]"
        }
      ],
      "stateMutability": "view",
      "type": "function",
      "constant": true
    },
    {
      "inputs": [
        {
          "internalType": "address",
          "name": "_address",
          "type": "address"
        }
      ],
      "name": "getPrizePool",
      "outputs": [
        {
          "internalType": "uint256",
          "name": "",
          "type": "uint256"
        }
      ],
      "stateMutability": "view",
      "type": "function",
      "constant": true
    },
    {
      "inputs": [],
      "name": "getPrize",
      "outputs": [],
      "stateMutability": "payable",
      "type": "function",
      "payable": true
    },
    {
      "inputs": [],
      "name": "endBetting",
      "outputs": [],
      "stateMutability": "nonpayable",
      "type": "function"
    }
  ],
  "bytecode": "0x6080604052600560025534801561001557600080fd5b5033600360006101000a81548173ffffffffffffffffffffffffffffffffffffffff021916908373ffffffffffffffffffffffffffffffffffffffff1602179055506000600360146101000a81548160ff021916908315150217905550612430806100816000396000f3fe6080604052600436106101095760003560e01c80638da5cb5b11610095578063bbf9031611610064578063bbf9031614610375578063c34f6b0d146103a0578063cc1dba4e146103aa578063d187162f146103e8578063dbfb2aa4146103ff57610109565b80638da5cb5b146102b7578063923e4d26146102e25780639f151d5c1461031f578063a5ee33cf1461034a57610109565b8063700eae73116100dc578063700eae73146101df578063728d0f6b1461020a5780637365870b146102475780637dcb385f14610263578063826f57a1146102a057610109565b80633ed896c21461010e5780635fb517b41461014b578063613f4594146101765780636a09f6be146101a1575b600080fd5b34801561011a57600080fd5b506101356004803603810190610130919061183a565b61042a565b6040516101429190611880565b60405180910390f35b34801561015757600080fd5b50610160610442565b60405161016d9190611880565b60405180910390f35b34801561018257600080fd5b5061018b610448565b6040516101989190611880565b60405180910390f35b3480156101ad57600080fd5b506101c860048036038101906101c391906118c7565b61044e565b6040516101d6929190611916565b60405180910390f35b3480156101eb57600080fd5b506101f46104af565b6040516102019190611afd565b60405180910390f35b34801561021657600080fd5b50610231600480360381019061022c919061183a565b6106a1565b60405161023e9190611880565b60405180910390f35b610261600480360381019061025c9190611b1f565b6106ea565b005b34801561026f57600080fd5b5061028a6004803603810190610285919061183a565b610a1e565b6040516102979190611b67565b60405180910390f35b3480156102ac57600080fd5b506102b5610a3e565b005b3480156102c357600080fd5b506102cc610c7a565b6040516102d99190611b82565b60405180910390f35b3480156102ee57600080fd5b5061030960048036038101906103049190611b1f565b610ca0565b6040516103169190611b67565b60405180910390f35b34801561032b57600080fd5b50610334610cc0565b6040516103419190611d5e565b60405180910390f35b34801561035657600080fd5b5061035f610e2d565b60405161036c9190611b67565b60405180910390f35b34801561038157600080fd5b5061038a610e40565b6040516103979190611880565b60405180910390f35b6103a8610e46565b005b3480156103b657600080fd5b506103d160048036038101906103cc9190611b1f565b610f5c565b6040516103df929190611d80565b60405180910390f35b3480156103f457600080fd5b506103fd610f90565b005b34801561040b57600080fd5b50610414611029565b6040516104219190611880565b60405180910390f35b60086020528060005260406000206000915090505481565b60025481565b60015481565b6000602052816000526040600020818154811061046a57600080fd5b9060005260206000209060020201600091509150508060000160009054906101000a900473ffffffffffffffffffffffffffffffffffffffff16908060010154905082565b6060600a67ffffffffffffffff8111156104cc576104cb611da9565b5b6040519080825280602002602001820160405280156104ff57816020015b60608152602001906001900390816104ea5790505b50905060005b600a81101561069d5760008060008381526020019081526020016000208054905067ffffffffffffffff81111561053f5761053e611da9565b5b60405190808252806020026020018201604052801561057857816020015b610565611675565b81526020019060019003908161055d5790505b50905060005b600080848152602001908152602001600020805490508110156106695760008084815260200190815260200160002081815481106105bf576105be611dd8565b5b90600052602060002090600202016040518060400160405290816000820160009054906101000a900473ffffffffffffffffffffffffffffffffffffffff1673ffffffffffffffffffffffffffffffffffffffff1673ffffffffffffffffffffffffffffffffffffffff16815260200160018201548152505082828151811061064b5761064a611dd8565b5b6020026020010181905250808061066190611e36565b91505061057e565b8184848151811061067d5761067c611dd8565b5b60200260200101819052505050808061069590611e36565b915050610505565b5090565b6000600860008373ffffffffffffffffffffffffffffffffffffffff1673ffffffffffffffffffffffffffffffffffffffff168152602001908152602001600020549050919050565b600360149054906101000a900460ff16610739576040517f08c379a000000000000000000000000000000000000000000000000000000000815260040161073090611edb565b60405180910390fd5b600a811061077c576040517f08c379a000000000000000000000000000000000000000000000000000000000815260040161077390611f47565b60405180910390fd5b600034116107bf576040517f08c379a00000000000000000000000000000000000000000000000000000000081526004016107b690611fb3565b60405180910390fd5b600760003373ffffffffffffffffffffffffffffffffffffffff1673ffffffffffffffffffffffffffffffffffffffff16815260200190815260200160002060009054906101000a900460ff161561084c576040517f08c379a000000000000000000000000000000000000000000000000000000000815260040161084390612045565b60405180910390fd5b6005600082815260200190815260200160002060009054906101000a900460ff166108b85760016005600083815260200190815260200160002060006101000a81548160ff0219169083151502179055506001600660008282546108b09190612065565b925050819055505b60008082815260200190815260200160002060405180604001604052803373ffffffffffffffffffffffffffffffffffffffff16815260200134815250908060018154018082558091505060019003906000526020600020906002020160009091909190915060008201518160000160006101000a81548173ffffffffffffffffffffffffffffffffffffffff021916908373ffffffffffffffffffffffffffffffffffffffff16021790555060208201518160010155505034600160008282546109839190612065565b925050819055506001600760003373ffffffffffffffffffffffffffffffffffffffff1673ffffffffffffffffffffffffffffffffffffffff16815260200190815260200160002060006101000a81548160ff0219169083151502179055507fbb5d359abfa911f55d10e5b1fe62141092342ccba0734899a68c3cdb935b5a578134604051610a13929190611d80565b60405180910390a150565b60076020528060005260406000206000915054906101000a900460ff1681565b600360009054906101000a900473ffffffffffffffffffffffffffffffffffffffff1673ffffffffffffffffffffffffffffffffffffffff163373ffffffffffffffffffffffffffffffffffffffff1614610ace576040517f08c379a0000000000000000000000000000000000000000000000000000000008152600401610ac5906120e5565b60405180910390fd5b600360149054906101000a900460ff16610b1d576040517f08c379a0000000000000000000000000000000000000000000000000000000008152600401610b1490611edb565b60405180910390fd5b600160065411610b62576040517f08c379a0000000000000000000000000000000000000000000000000000000008152600401610b5990612177565b60405180910390fd5b6000600a67ffffffffffffffff811115610b7f57610b7e611da9565b5b604051908082528060200260200182016040528015610bad5781602001602082028036833780820191505090505b5090506000805b600a811015610c1c5760008060008381526020019081526020016000208054905014610c095780838381518110610bee57610bed611dd8565b5b6020026020010181815250508180610c0590611e36565b9250505b8080610c1490611e36565b915050610bb4565b508181610c2761102f565b610c3191906121c6565b81518110610c4257610c41611dd8565b5b60200260200101516004819055506000600360146101000a81548160ff021916908315150217905550610c76600454611066565b5050565b600360009054906101000a900473ffffffffffffffffffffffffffffffffffffffff1681565b60056020528060005260406000206000915054906101000a900460ff1681565b606060098054905067ffffffffffffffff811115610ce157610ce0611da9565b5b604051908082528060200260200182016040528015610d1a57816020015b610d076116a5565b815260200190600190039081610cff5790505b50905060005b8151811015610e295760098181548110610d3d57610d3c611dd8565b5b90600052602060002090600302016040518060600160405290816000820154815260200160018201805480602002602001604051908101604052809291908181526020018280548015610de557602002820191906000526020600020905b8160009054906101000a900473ffffffffffffffffffffffffffffffffffffffff1673ffffffffffffffffffffffffffffffffffffffff1681526020019060010190808311610d9b575b50505050508152602001600282015481525050828281518110610e0b57610e0a611dd8565b5b60200260200101819052508080610e2190611e36565b915050610d20565b5090565b600360149054906101000a900460ff1681565b60065481565b6000600860003373ffffffffffffffffffffffffffffffffffffffff1673ffffffffffffffffffffffffffffffffffffffff16815260200190815260200160002054905060008111610ecd576040517f08c379a0000000000000000000000000000000000000000000000000000000008152600401610ec490612269565b60405180910390fd5b6000600860003373ffffffffffffffffffffffffffffffffffffffff1673ffffffffffffffffffffffffffffffffffffffff168152602001908152602001600020819055503373ffffffffffffffffffffffffffffffffffffffff166108fc829081150290604051600060405180830381858888f19350505050158015610f58573d6000803e3d6000fd5b5050565b60098181548110610f6c57600080fd5b90600052602060002090600302016000915090508060000154908060020154905082565b600360149054906101000a900460ff1615610fe0576040517f08c379a0000000000000000000000000000000000000000000000000000000008152600401610fd7906122d5565b60405180910390fd5b6001600360146101000a81548160ff0219169083151502179055507f0186bf5fdbd07c3404b0fb195372658210bdfd8c2d979b7224910ebdae80327d60405160405180910390a1565b60045481565b6000444260015460405160200161104893929190612316565b6040516020818303038152906040528051906020012060001c905090565b60008080600080858152602001908152602001600020805480602002602001604051908101604052809291908181526020016000905b8282101561112e57838290600052602060002090600202016040518060400160405290816000820160009054906101000a900473ffffffffffffffffffffffffffffffffffffffff1673ffffffffffffffffffffffffffffffffffffffff1673ffffffffffffffffffffffffffffffffffffffff1681526020016001820154815250508152602001906001019061109c565b50505050905060005b815181101561117f5781818151811061115357611152611dd8565b5b6020026020010151602001518461116a9190612065565b9350808061117790611e36565b915050611137565b50600060646002546001546111949190612353565b61119e9190612395565b9050806001546111ae91906123c6565b9250600081111561122357600360009054906101000a900473ffffffffffffffffffffffffffffffffffffffff1673ffffffffffffffffffffffffffffffffffffffff166108fc829081150290604051600060405180830381858888f19350505050158015611221573d6000803e3d6000fd5b505b600960405180606001604052806001548152602001600067ffffffffffffffff81111561125357611252611da9565b5b6040519080825280602002602001820160405280156112815781602001602082028036833780820191505090505b5081526020014281525090806001815401808255809150506001900390600052602060002090600302016000909190919091506000820151816000015560208201518160010190805190602001906112da9291906116c6565b5060408201518160020155505060005b825181101561149157600083828151811061130857611307611dd8565b5b602002602001015160200151111561147e576000858585848151811061133157611330611dd8565b5b6020026020010151602001516113479190612353565b6113519190612395565b9050806008600086858151811061136b5761136a611dd8565b5b60200260200101516000015173ffffffffffffffffffffffffffffffffffffffff1673ffffffffffffffffffffffffffffffffffffffff16815260200190815260200160002060008282546113c09190612065565b92505081905550600960016009805490506113db91906123c6565b815481106113ec576113eb611dd8565b5b90600052602060002090600302016001018483815181106114105761140f611dd8565b5b6020026020010151600001519080600181540180825580915050600190039060005260206000200160009091909190916101000a81548173ffffffffffffffffffffffffffffffffffffffff021916908373ffffffffffffffffffffffffffffffffffffffff160217905550505b808061148990611e36565b9150506112ea565b507f6acd71a91f87517feafe1185ba766bc835fae1a3847b208a56046fbd8032767d856040516114c19190611880565b60405180910390a16114d16114d8565b5050505050565b60005b600a8110156115d85760005b600080838152602001908152602001600020805490508110156115c457600060076000806000868152602001908152602001600020848154811061152e5761152d611dd8565b5b906000526020600020906002020160000160009054906101000a900473ffffffffffffffffffffffffffffffffffffffff1673ffffffffffffffffffffffffffffffffffffffff1673ffffffffffffffffffffffffffffffffffffffff16815260200190815260200160002060006101000a81548160ff02191690831515021790555080806115bc90611e36565b9150506114e7565b5080806115d090611e36565b9150506114db565b5060005b600a8110156116165760008082815260200190815260200160002060006116039190611750565b808061160e90611e36565b9150506115dc565b50600060018190555060005b600a81101561166a5760006005600083815260200190815260200160002060006101000a81548160ff021916908315150217905550808061166290611e36565b915050611622565b506000600681905550565b6040518060400160405280600073ffffffffffffffffffffffffffffffffffffffff168152602001600081525090565b60405180606001604052806000815260200160608152602001600081525090565b82805482825590600052602060002090810192821561173f579160200282015b8281111561173e5782518260006101000a81548173ffffffffffffffffffffffffffffffffffffffff021916908373ffffffffffffffffffffffffffffffffffffffff160217905550916020019190600101906116e6565b5b50905061174c9190611774565b5090565b50805460008255600202906000526020600020908101906117719190611791565b50565b5b8082111561178d576000816000905550600101611775565b5090565b5b808211156117d357600080820160006101000a81549073ffffffffffffffffffffffffffffffffffffffff0219169055600182016000905550600201611792565b5090565b600080fd5b600073ffffffffffffffffffffffffffffffffffffffff82169050919050565b6000611807826117dc565b9050919050565b611817816117fc565b811461182257600080fd5b50565b6000813590506118348161180e565b92915050565b6000602082840312156118505761184f6117d7565b5b600061185e84828501611825565b91505092915050565b6000819050919050565b61187a81611867565b82525050565b60006020820190506118956000830184611871565b92915050565b6118a481611867565b81146118af57600080fd5b50565b6000813590506118c18161189b565b92915050565b600080604083850312156118de576118dd6117d7565b5b60006118ec858286016118b2565b92505060206118fd858286016118b2565b9150509250929050565b611910816117fc565b82525050565b600060408201905061192b6000830185611907565b6119386020830184611871565b9392505050565b600081519050919050565b600082825260208201905092915050565b6000819050602082019050919050565b600081519050919050565b600082825260208201905092915050565b6000819050602082019050919050565b6119a0816117fc565b82525050565b6119af81611867565b82525050565b6040820160008201516119cb6000850182611997565b5060208201516119de60208501826119a6565b50505050565b60006119f083836119b5565b60408301905092915050565b6000602082019050919050565b6000611a148261196b565b611a1e8185611976565b9350611a2983611987565b8060005b83811015611a5a578151611a4188826119e4565b9750611a4c836119fc565b925050600181019050611a2d565b5085935050505092915050565b6000611a738383611a09565b905092915050565b6000602082019050919050565b6000611a938261193f565b611a9d818561194a565b935083602082028501611aaf8561195b565b8060005b85811015611aeb5784840389528151611acc8582611a67565b9450611ad783611a7b565b925060208a01995050600181019050611ab3565b50829750879550505050505092915050565b60006020820190508181036000830152611b178184611a88565b905092915050565b600060208284031215611b3557611b346117d7565b5b6000611b43848285016118b2565b91505092915050565b60008115159050919050565b611b6181611b4c565b82525050565b6000602082019050611b7c6000830184611b58565b92915050565b6000602082019050611b976000830184611907565b92915050565b600081519050919050565b600082825260208201905092915050565b6000819050602082019050919050565b600081519050919050565b600082825260208201905092915050565b6000819050602082019050919050565b6000611c018383611997565b60208301905092915050565b6000602082019050919050565b6000611c2582611bc9565b611c2f8185611bd4565b9350611c3a83611be5565b8060005b83811015611c6b578151611c528882611bf5565b9750611c5d83611c0d565b925050600181019050611c3e565b5085935050505092915050565b6000606083016000830151611c9060008601826119a6565b5060208301518482036020860152611ca88282611c1a565b9150506040830151611cbd60408601826119a6565b508091505092915050565b6000611cd48383611c78565b905092915050565b6000602082019050919050565b6000611cf482611b9d565b611cfe8185611ba8565b935083602082028501611d1085611bb9565b8060005b85811015611d4c5784840389528151611d2d8582611cc8565b9450611d3883611cdc565b925060208a01995050600181019050611d14565b50829750879550505050505092915050565b60006020820190508181036000830152611d788184611ce9565b905092915050565b6000604082019050611d956000830185611871565b611da26020830184611871565b9392505050565b7f4e487b7100000000000000000000000000000000000000000000000000000000600052604160045260246000fd5b7f4e487b7100000000000000000000000000000000000000000000000000000000600052603260045260246000fd5b7f4e487b7100000000000000000000000000000000000000000000000000000000600052601160045260246000fd5b6000611e4182611867565b91507fffffffffffffffffffffffffffffffffffffffffffffffffffffffffffffffff8203611e7357611e72611e07565b5b600182019050919050565b600082825260208201905092915050565b7f42657474696e67206973206e6f74206163746976650000000000000000000000600082015250565b6000611ec5601583611e7e565b9150611ed082611e8f565b602082019050919050565b60006020820190508181036000830152611ef481611eb8565b9050919050565b7f496e76616c696420736c6f74206e756d62657200000000000000000000000000600082015250565b6000611f31601383611e7e565b9150611f3c82611efb565b602082019050919050565b60006020820190508181036000830152611f6081611f24565b9050919050565b7f42657420616d6f756e742063616e6e6f74206265207a65726f00000000000000600082015250565b6000611f9d601983611e7e565b9150611fa882611f67565b602082019050919050565b60006020820190508181036000830152611fcc81611f90565b9050919050565b7f557365722068617320616c726561647920706c6163656420612062657420746860008201527f697320726f756e64000000000000000000000000000000000000000000000000602082015250565b600061202f602883611e7e565b915061203a82611fd3565b604082019050919050565b6000602082019050818103600083015261205e81612022565b9050919050565b600061207082611867565b915061207b83611867565b925082820190508082111561209357612092611e07565b5b92915050565b7f43616c6c6572206973206e6f7420746865206f776e6572000000000000000000600082015250565b60006120cf601783611e7e565b91506120da82612099565b602082019050919050565b600060208201905081810360008301526120fe816120c2565b9050919050565b7f42657474696e67206d75737420626520696e206d6f7265207468616e206f6e6560008201527f20736c6f74000000000000000000000000000000000000000000000000000000602082015250565b6000612161602583611e7e565b915061216c82612105565b604082019050919050565b6000602082019050818103600083015261219081612154565b9050919050565b7f4e487b7100000000000000000000000000000000000000000000000000000000600052601260045260246000fd5b60006121d182611867565b91506121dc83611867565b9250826121ec576121eb612197565b5b828206905092915050565b7f546865726520617265206e6f2066756e647320696e20796f75722077696e6e6960008201527f6e6720706f6f6c2e000000000000000000000000000000000000000000000000602082015250565b6000612253602883611e7e565b915061225e826121f7565b604082019050919050565b6000602082019050818103600083015261228281612246565b9050919050565b7f42657474696e6720697320616c72656164792061637469766500000000000000600082015250565b60006122bf601983611e7e565b91506122ca82612289565b602082019050919050565b600060208201905081810360008301526122ee816122b2565b9050919050565b6000819050919050565b61231061230b82611867565b6122f5565b82525050565b600061232282866122ff565b60208201915061233282856122ff565b60208201915061234282846122ff565b602082019150819050949350505050565b600061235e82611867565b915061236983611867565b925082820261237781611867565b9150828204841483151761238e5761238d611e07565b5b5092915050565b60006123a082611867565b91506123ab83611867565b9250826123bb576123ba612197565b5b828204905092915050565b60006123d182611867565b91506123dc83611867565b92508282039050818111156123f4576123f3611e07565b5b9291505056fea26469706673582212208e20071b69029b1fadf4e3aef17fb6d4c011aa47aaf4e2128b14bf16e06f4a8364736f6c63430008120033",
  "immutableReferences": {},
  "source": "// SPDX-License-Identifier: MIT\r\npragma solidity ^0.8.18;\r\n\r\ncontract Betting {\r\n    struct Bet {\r\n        address bettor;\r\n        uint amount;\r\n    }\r\n\r\n    mapping(uint => Bet[]) public bets;\r\n    uint public totalBetAmount;\r\n    uint public ownerCommissionPercent = 5; // 5% commission to the owner\r\n    address public owner;\r\n    bool public bettingActive;\r\n    uint constant NUM_SLOTS = 10;\r\n    uint public winningSlot;\r\n\r\n    mapping(uint => bool) public slotHasBets;\r\n    uint public activeSlotsCount;\r\n    mapping(address => bool) public hasBetThisRound;\r\n    mapping(address => uint) public winningPool;\r\n\r\n    struct BetInfo {\r\n        uint totalBet;\r\n        address[] winners;\r\n        uint timeStamp;\r\n    }\r\n    BetInfo[] public betRecord;\r\n\r\n    event BettingStart();\r\n    event BettingEnded(uint slot);\r\n    event NewBet(uint slot, uint amount);\r\n\r\n    constructor() {\r\n        owner = msg.sender;\r\n        bettingActive = false;\r\n    }\r\n\r\n    modifier onlyOwner() {\r\n        require(msg.sender == owner, \"Caller is not the owner\");\r\n        _;\r\n    }\r\n\r\n    function startBetting() public {\r\n        require(!bettingActive, \"Betting is already active\");\r\n        bettingActive = true;\r\n        emit BettingStart();\r\n    }\r\n\r\n    function bet(uint slot) public payable {\r\n        require(bettingActive, \"Betting is not active\");\r\n        require(slot < NUM_SLOTS, \"Invalid slot number\");\r\n        require(msg.value > 0, \"Bet amount cannot be zero\");\r\n        require(!hasBetThisRound[msg.sender], \"User has already placed a bet this round\");\r\n\r\n        if (!slotHasBets[slot]) {\r\n            slotHasBets[slot] = true;\r\n            activeSlotsCount += 1;\r\n        }\r\n\r\n        bets[slot].push(Bet(msg.sender, msg.value));\r\n        totalBetAmount += msg.value;\r\n        hasBetThisRound[msg.sender] = true;\r\n\r\n        emit NewBet(slot, msg.value);\r\n    }\r\n\r\n    function getAllBets() public view returns (Bet[][] memory betStatus) {\r\n        betStatus = new Bet[][](NUM_SLOTS);\r\n\r\n        for (uint i = 0; i < NUM_SLOTS; i++){\r\n            Bet[] memory slotBets = new Bet[](bets[i].length);\r\n            uint j = 0;\r\n            while(j < bets[i].length){\r\n                slotBets[j] = bets[i][j];\r\n                j++;\r\n            }\r\n            betStatus[i] = slotBets;\r\n        }\r\n\r\n        return betStatus;\r\n    }\r\n\r\n    function getBetRecords() public view returns (BetInfo[] memory records) {\r\n        records = new BetInfo[](betRecord.length);\r\n        for (uint i = 0; i < records.length; i++) {\r\n            records[i] = betRecord[i];\r\n        }\r\n        return records;\r\n    }\r\n\r\n    function getPrizePool (address _address) public view returns (uint) {\r\n        return winningPool[_address];\r\n    }\r\n\r\n    function getPrize() public payable {\r\n        uint prizeAmount = winningPool[msg.sender];\r\n        require(prizeAmount > 0, \"There are no funds in your winning pool.\");\r\n\r\n        winningPool[msg.sender] = 0;\r\n        payable(msg.sender).transfer(prizeAmount);\r\n    }\r\n\r\n    function endBetting() public onlyOwner {\r\n        require(bettingActive, \"Betting is not active\");\r\n        require(activeSlotsCount > 1, \"Betting must be in more than one slot\");\r\n\r\n        uint[] memory slot = new uint[](10);\r\n        uint bettedSlots = 0;\r\n\r\n        for (uint i = 0; i < NUM_SLOTS; i++){\r\n            if(bets[i].length != 0) {\r\n                slot[bettedSlots] = i;\r\n                bettedSlots++;\r\n            }\r\n        }\r\n        winningSlot = slot[rand() % bettedSlots];\r\n\r\n        bettingActive = false;\r\n        distributePrizes(winningSlot);\r\n    }\r\n\r\n    function distributePrizes(uint _winningSlot) private {\r\n        uint totalWinningBets = 0;\r\n        uint prizePool;\r\n        Bet[] memory winningBets = bets[_winningSlot];\r\n\r\n        // Calculate total bets for the winning slot\r\n        for (uint i = 0; i < winningBets.length; i++) {\r\n            totalWinningBets += winningBets[i].amount;\r\n        }\r\n\r\n        // Calculate commission and net prize pool\r\n        uint ownerCommission = (totalBetAmount * ownerCommissionPercent) / 100;\r\n        prizePool = totalBetAmount - ownerCommission;\r\n\r\n        if (ownerCommission > 0) {\r\n            payable(owner).transfer(ownerCommission);\r\n        }    \r\n        \r\n        betRecord.push(BetInfo(totalBetAmount, new address[](0), block.timestamp));\r\n\r\n        for (uint i = 0; i < winningBets.length; i++) {\r\n            if (winningBets[i].amount > 0) {\r\n                uint winPrize = (winningBets[i].amount * prizePool) / totalWinningBets;\r\n                winningPool[winningBets[i].bettor] += winPrize;\r\n                betRecord[betRecord.length - 1].winners.push(winningBets[i].bettor);\r\n            }\r\n        }\r\n\r\n        emit BettingEnded(_winningSlot);\r\n\r\n        resetBets();\r\n    }\r\n\r\n    function resetBets() private {\r\n        for (uint i = 0; i < NUM_SLOTS; i++) {\r\n            for (uint j = 0; j < bets[i].length; j++) {\r\n                hasBetThisRound[bets[i][j].bettor] = false;\r\n            }\r\n        }\r\n\r\n      for (uint i = 0; i < NUM_SLOTS; i++) {\r\n          delete bets[i];\r\n      }\r\n      totalBetAmount = 0;\r\n        \r\n      for (uint i = 0; i < NUM_SLOTS; i++) {\r\n        slotHasBets[i] = false;\r\n      }\r\n      activeSlotsCount = 0;\r\n    }\r\n\r\n    function rand() private view returns (uint) {\r\n        return uint(keccak256(abi.encodePacked(block.prevrandao, block.timestamp, totalBetAmount)));\r\n    }\r\n}\r\n",
  "sourcePath": "D:\\my_work\\in_729\\Blockchain\\BettingContract\\truffle\\contracts\\Betting.sol",
  "compiler": {
    "name": "solc",
    "version": "0.8.18+commit.87f61d96.Emscripten.clang"
  },
  "schemaVersion": "3.4.16",
  "updatedAt": "2024-06-03T10:22:34.006Z",
  "networkType": "ethereum",
  "devdoc": {
    "kind": "dev",
    "methods": {},
    "version": 1
  },
  "userdoc": {
    "kind": "user",
    "methods": {},
    "version": 1
  }
}